0070633029BOOKS     Advanced Aerobatics                                                             BOOKS     00299520060516000022462500002246250000440000020000000000000070633029                                                                                                                                  19941121                                                                                                                            
0071422587BOOKS     101 Things To Do After You Get Your Private Pilot's License                     BOOKS     00249520060516000018712500001871250000080000010000000000000071422587                                                                                                                                  19941121                                                                                                                            
007157719XBOOKS     The ABCs of Safe Flying                                                         BOOKS     0022952006051600001721250000172125000058000000000000000000007157719X                                                                                                                                  19941121                                                                                                                            
0099652315BOOKS     Adventure Series Biggles Flying Adventure                                       BOOKS     00099920060516000007492500000749250000260000020000000000000099652315                                                                                                                                  19941121                                                                                                                            
0102314942BOOKS     7th Report [session 1993-94]: Low Flying: [HC]: [1993-94]: House of Commons PapeBOOKS     00099920060516000007492500000749250000450000000000000000000102314942                                                                                                                                  19941121                                                                                                                            
0138113084BOOKS     6 Acts on a Flying Trapeze                                                      BOOKS     00156020060516000011700000001170000000190000010000000000000138113084                                                                                                                                  19941121                                                                                                                            
0307001164BOOKS     101 Dalmatians                                                                  BOOKS     00029920060516000002242500000224250000690000060000000000000307001164                                                                                                                                  19941121                                                                                                                            
0307158802BOOKS     10 Disney Little Golden Books Slipcase Set (includes Snow White, Cinderella, PetBOOKS     00169920060516000012742500001274250000080000010000000000000307158802                                                                                                                                  19941121                                                                                                                            
0307610802BOOKS     ABC                                                                             BOOKS     00060820060516000004560000000456000000150000000000000000000307610802                                                                                                                                  19941121                                                                                                                            
0307740129BOOKS     101 Dalmatians (Sight & Sound)                                                  BOOKS     00099520060516000007462500000746250000680000010000000000000307740129                                                                                                                                  19941121                                                                                                                            
0312007604BOOKS     Aerobatics Today                                                                BOOKS     00139520060516000010462500001046250000950000080000000000000312007604                                                                                                                                  19941121                                                                                                                            
0312867085BOOKS     The Abduction Enigma                                                            BOOKS     00259520060516000019462500001946250000680000010000000000000312867085                                                                                                                                  19941121                                                                                                                            
0330263862BOOKS     Adventures Of Mickey Mouse Disney W                                             BOOKS     00099920060516000007492500000749250000480000000000000000000330263862                                                                                                                                  19941121                                                                                                                            
0394825195BOOKS     ACROSS THE BIG COUNTRY                                                          BOOKS     00049520060516000003712500000371250000040000000000000000000394825195                                                                                                                                  19941121                                                                                                                            
0394925718BOOKS     101 DALMATIANS                                                                  BOOKS     00049920060516000003742500000374250000450000000000000000000394925718                                                                                                                                  19941121                                                                                                                            
0394948181BOOKS     ADVENTURES OF MR. TOAD                                                          BOOKS     00049920060516000003742500000374250000560000050000000000000394948181                                                                                                                                  19941121                                                                                                                            
0434802921BOOKS     101 DALMATION-DISNEY STORY-GO-ROU                                               BOOKS     00099920060516000007492500000749250000940000010000000000000434802921                                                                                                                                  19941121                                                                                                                            
0450042316BOOKS     20,000 Leagues Under the Sea: Adapted from Walt Disney Productions' Screen PreseBOOKS     00099920060516000007492500000749250000690000020000000000000450042316                                                                                                                                  19941121                                                                                                                            
0453030777BOOKS     101 Dalmatians: Lots of Spots Bath Book                                         BOOKS     00059820060516000004485000000448500000350000030000000000000453030777                                                                                                                                  19941121                                                                                                                            
051768649XBOOKS     101 Dalmations : Disney Animated                                                BOOKS     0005992006051600000449250000044925000056000003000000000000051768649X                                                                                                                                  19941121                                                                                                                            
0553055038BOOKS     Adventures in Color and Shapes (Disney's Fun to Learn Ser)                      BOOKS     00037920060516000002842500000284250000630000030000000000000553055038                                                                                                                                  19941121                                                                                                                            
055305533XBOOKS     ADVEN/LETTERS/NUMB/                                                             BOOKS     0005952006051600000446250000044625000100000003000000000000055305533X                                                                                                                                  19941121                                                                                                                            
0613164512BOOKS     Adventure at Walt Disney World                                                  BOOKS     00118020060516000008850000000885000000650000020000000000000613164512                                                                                                                                  19941121                                                                                                                            
0613240901BOOKS     The Adventures of Rocky and Bullwinkle: The Movie                               BOOKS     00118020060516000008850000000885000000950000010000000000000613240901                                                                                                                                  19941121                                                                                                                            
0613797485BOOKS     Adventures of Devi: A Glimpse of Paradise/Devi and the Flying Sword/The LAN     BOOKS     00270520060516000020287500002028750000540000040000000000000613797485                                                                                                                                  19941121                                                                                                                            
0613987497BOOKS     Adam Raccoon & Flying Machine                                                   BOOKS     00130020060516000009750000000975000000820000060000000000000613987497                                                                                                                                  19941121                                                                                                                            
0634007262BOOKS     357. Disney's Tarzan                                                            BOOKS     00099520060516000007462500000746250000490000040000000000000634007262                                                                                                                                  19941121                                                                                                                            
063401577XBOOKS     392. Disney Favorites                                                           BOOKS     0014952006051600001121250000112125000053000004000000000000063401577X                                                                                                                                  19941121                                                                                                                            
0634016822BOOKS     398. Selections from Disney's Princess Collections                              BOOKS     00099520060516000007462500000746250000560000020000000000000634016822                                                                                                                                  19941121                                                                                                                            
0634045180BOOKS     003. Contemporary Disney : 32 Songs: The Little Mermaid to The Emperor's New GroBOOKS     00169520060516000012712500001271250000090000000000000000000634045180                                                                                                                                  19941121                                                                                                                            
0670883298BOOKS     ABC Pop! (Picture Books)                                                        BOOKS     00159920060516000011992500001199250000930000020000000000000670883298                                                                                                                                  19941121                                                                                                                            
067160418XBOOKS     Addition and Subtraction (Mickey's Drill-A-Day Pads)                            BOOKS     0004952006051600000371250000037125000038000001000000000000067160418X                                                                                                                                  19941121                                                                                                                            
0671885316BOOKS     ABDUCTION (CASSETTE)                                                            BOOKS     00170020060516000012750000001275000000070000000000000000000671885316                                                                                                                                  19941121                                                                                                                            
0681414367BOOKS     The 101 Dalmatians (Disney Classic Series)                                      BOOKS     00069820060516000005235000000523500000760000070000000000000681414367                                                                                                                                  19941121                                                                                                                            
0688078605BOOKS     Above Top Secret                                                                BOOKS     00199520060516000014962500001496250000690000000000000000000688078605                                                                                                                                  19941121                                                                                                                            
0717284832BOOKS     101 Dalmatians                                                                  BOOKS     00099920060516000007492500000749250000580000000000000000000717284832                                                                                                                                  19941121                                                                                                                            
0717288129BOOKS     101 Dalmations Treasure Hunters (Disney's Wonderful World of Reading)           BOOKS     00099920060516000007492500000749250000510000050000000000000717288129                                                                                                                                  19941121                                                                                                                            
0721437443BOOKS     101 Dalmations Disney Classic                                                   BOOKS     00099920060516000007492500000749250000190000020000000000000721437443                                                                                                                                  19941121                                                                                                                            
0721437850BOOKS     10 Button - Pooh Songs (Disney Electronic)                                      BOOKS     00099920060516000007492500000749250000960000020000000000000721437850                                                                                                                                  19941121                                                                                                                            
0721437877BOOKS     10 Button - Mickey's Toontown Tunes (Disney Electronic)                         BOOKS     00099920060516000007492500000749250000070000000000000000000721437877                                                                                                                                  19941121                                                                                                                            
073640192XBOOKS     102 Dalmatians: Numbers                                                         BOOKS     0004992006051600000374250000037425000030000003000000000000073640192X                                                                                                                                  19941121                                                                                                                            
073640208XBOOKS     102 Dalmatians: Take Me Home!                                                   BOOKS     0007992006051600000599250000059925000090000009000000000000073640208X                                                                                                                                  19941121                                                                                                                            
0736402284BOOKS     102 Dalmatians: Colors                                                          BOOKS     00049920060516000003742500000374250000040000000000000000000736402284                                                                                                                                  19941121                                                                                                                            
0736409815BOOKS     102 Dalmations Display                                                          BOOKS     02096520060516000157237500015723750000660000010000000000000736409815                                                                                                                                  19941121                                                                                                                            
0736410791BOOKS     Adventure Vehicles                                                              BOOKS     00099920060516000007492500000749250000060000000000000000000736410791                                                                                                                                  19941121                                                                                                                            
0736420339BOOKS     Aladdin                                                                         BOOKS     00039920060516000002992500000299250000230000010000000000000736420339                                                                                                                                  19941121                                                                                                                            
0736421459BOOKS     101 Dalmatians                                                                  BOOKS     00032520060516000002437500000243750000320000030000000000000736421459                                                                                                                                  19941121                                                                                                                            
0736422749BOOKS     Adorable Ariel                                                                  BOOKS     00039920060516000002992500000299250000180000010000000000000736422749                                                                                                                                  19941121                                                                                                                            
0736485201BOOKS     24-copy Disney Mixed Color and Activity Prepack                                 BOOKS     00837620060516000062820000006282000000470000030000000000000736485201                                                                                                                                  19941121                                                                                                                            
073648521XBOOKS     50-copy Disney Mixed Color and Activity Convertible Waterfall Sidekick/Floor DisBOOKS     0169502006051600012712500001271250000018000001000000000000073648521X                                                                                                                                  19941121                                                                                                                            
0736485643BOOKS     12-Copy Atlantis Prepack/Canada                                                 BOOKS     00838820060516000062910000006291000000460000030000000000000736485643                                                                                                                                  19941121                                                                                                                            
0736486186BOOKS     101 Dalmatians 52-Copy UIP Convertible Waterfall Sidekick/Floor Display         BOOKS     01966820060516000147510000014751000000790000010000000000000736486186                                                                                                                                  19941121                                                                                                                            
0736486399BOOKS     101 Dalmatians 52-Copy UPI Convertible Waterfall Sidekick/Floor Display         BOOKS     01966820060516000147510000014751000000240000020000000000000736486399                                                                                                                                  19941121                                                                                                                            
0749516364BOOKS     AA Essential Orlando and Walt Disney World (AA Essential Guides)                BOOKS     00099920060516000007492500000749250000780000020000000000000749516364                                                                                                                                  19941121                                                                                                                            
0754116670BOOKS     Adventures of Oris - Flying Ace                                                 BOOKS     00099920060516000007492500000749250000660000030000000000000754116670                                                                                                                                  19941121                                                                                                                            
0759602514BOOKS     Adventures of Willie King: Willie King and His Flying Machine (Adventures of WilBOOKS     00171020060516000012825000001282500000970000020000000000000759602514                                                                                                                                  19941121                                                                                                                            
0763401080BOOKS     101 Dalmatians Live Music Album                                                 BOOKS     00179820060516000013485000001348500000820000040000000000000763401080                                                                                                                                  19941121                                                                                                                            
0763401099BOOKS     101 Dalmations Sing-Along                                                       BOOKS     00225020060516000016875000001687500000450000030000000000000763401099                                                                                                                                  19941121                                                                                                                            
0763406767BOOKS     Adventures of Rocky and Bullwinkle                                              BOOKS     00069820060516000005235000000523500000550000020000000000000763406767                                                                                                                                  19941121                                                                                                                            
0766016129BOOKS     The 1900s: From Teddy Roosevelt to Flying Machines (Feinstein, Stephen. Decades BOOKS     00226020060516000016950000001695000000870000050000000000000766016129                                                                                                                                  19941121                                                                                                                            
078031901XBOOKS     1994 IEEE International Conference on Neural Networks: IEEE World Congress on CoBOOKS     0410002006051600030750000003075000000075000006000000000000078031901X                                                                                                                                  19941121                                                                                                                            
0780319028BOOKS     The 1994 IEEE International Conference on Neural Networks : IEEE World Congress BOOKS     00099920060516000007492500000749250000400000020000000000000780319028                                                                                                                                  19941121                                                                                                                            
0780319036BOOKS     The 1994 IEEE International Conference on Neural Networks : IEEE World Congress BOOKS     00099920060516000007492500000749250000740000070000000000000780319036                                                                                                                                  19941121                                                                                                                            
0781430119BOOKS     Adam Raccoon and the Flying Machine                                             BOOKS     00049920060516000003742500000374250000240000010000000000000781430119                                                                                                                                  19941121                                                                                                                            
0782011276DVD       The Flying Tigers                                                               DVD       0014982006051600001123500000112350000087000004000000000000                                                                                                                                            19941121                                                                                                                            
0785988475BOOKS     101 Dalmatians (in French)                                                      BOOKS     00099520060516000007462500000746250000070000000000000000000785988475                                                                                                                                  19941121                                                                                                                            
0786701293BOOKS     Abducted!: The Story of the Intruders Continues                                 BOOKS     00210020060516000015750000001575000000760000070000000000000786701293                                                                                                                                  19941121                                                                                                                            
0786830352BOOKS     1,2,3, Under the Sea: A Little Mermaid Pop-Up Counting Book                     BOOKS     00129520060516000009712500000971250000430000020000000000000786830352                                                                                                                                  19941121                                                                                                                            
0786831324BOOKS     Abc Disney Pop-Up                                                               BOOKS     00225020060516000016875000001687500000530000020000000000000786831324                                                                                                                                  19941121                                                                                                                            
0786832452BOOKS     Add a Little Magic:(cloth) Words of Inspiration From Disney (Gift Book)         BOOKS     00129920060516000009742500000974250000810000050000000000000786832452                                                                                                                                  19941121                                                                                                                            
0786832592BOOKS     Aladar's Story (Dinosaurs)                                                      BOOKS     00129920060516000009742500000974250000170000000000000000000786832592                                                                                                                                  19941121                                                                                                                            
0786840714BOOKS     Abu Monkeys Around: A Story from Disney's Aladdin (Disney's First Readers)      BOOKS     00029520060516000002212500000221250000460000000000000000000786840714                                                                                                                                  19941121                                                                                                                            
0786841737BOOKS     101 Dalmatians Scrapbook: Behind the Scenes of the Live-Action Movie (Disney's 1BOOKS     00079520060516000005962500000596250000480000030000000000000786841737                                                                                                                                  19941121                                                                                                                            
0786841990BOOKS     101 Dalmatians Illustrated Classic                                              BOOKS     00059520060516000004462500000446250000070000000000000000000786841990                                                                                                                                  19941121                                                                                                                            
0788812947VHS       101 Dalmatians Christmas                                                        VHS       0012992006051600000974250000097425000003000000000000000000                                                                                                                                            19941121                                                                                                                            
0790749610VHS       Astaire & Rogers Collection Volume 1 (Flying Down to Rio, The Gay Divorcee, RobeVHS       0069982006051600005248500000524850000066000001000000000000                                                                                                                                            19941121                                                                                                                            
0793506905BOOKS     213. Big Book of Disney Songs                                                   BOOKS     00219520060516000016462500001646250000260000000000000000000793506905                                                                                                                                  19941121                                                                                                                            
0793517826BOOKS     Aladdin                                                                         BOOKS     00169520060516000012712500001271250000510000020000000000000793517826                                                                                                                                  19941121                                                                                                                            
0793540674BOOKS     209. Disney Christmas Favorites                                                 BOOKS     00069520060516000005212500000521250000390000030000000000000793540674                                                                                                                                  19941121                                                                                                                            
0793545463BOOKS     023. Disney Spotlights                                                          BOOKS     00069520060516000005212500000521250000950000090000000000000793545463                                                                                                                                  19941121                                                                                                                            
079358034XBOOKS     234 Disney Love Songs                                                           BOOKS     0006952006051600000521250000052125000098000008000000000000079358034X                                                                                                                                  19941121                                                                                                                            
0811824748BOOKS     ABC Block Books: 26 Board Books in a Box!                                       BOOKS     00249520060516000018712500001871250000600000030000000000000811824748                                                                                                                                  19941121                                                                                                                            
0811893456BOOKS     8-Pak Flying Sausages PB                                                        BOOKS     00099920060516000007492500000749250000690000060000000000000811893456                                                                                                                                  19941121                                                                                                                            
0822504367BOOKS     Aerobatics (Superwheels & Thrill Sports.)                                       BOOKS     00039820060516000002985000000298500000780000000000000000000822504367                                                                                                                                  19941121                                                                                                                            
083062290XBOOKS     The ABC's of safe flying (Modern aviation series)                               BOOKS     0009992006051600000749250000074925000032000003000000000000083062290X                                                                                                                                  19941121                                                                                                                            
0830623590BOOKS     101 Things to Do With Your Private License/Pbn 2359                             BOOKS     00139520060516000010462500001046250000590000000000000000000830623590                                                                                                                                  19941121                                                                                                                            
0830635750BOOKS     101 Things to Do With Your Private License                                      BOOKS     00249520060516000018712500001871250000730000070000000000000830635750                                                                                                                                  19941121                                                                                                                            
0830639977BOOKS     Advanced Aircraft Systems (Practical Flying Series)                             BOOKS     00300020060516000022500000002250000000080000000000000000000830639977                                                                                                                                  19941121                                                                                                                            
0830692282BOOKS     1001 Flying Facts and Firsts                                                    BOOKS     00099920060516000007492500000749250000520000030000000000000830692282                                                                                                                                  19941121                                                                                                                            
0830693602BOOKS     Advanced Guide to Radio Control Sport Flying                                    BOOKS     00099520060516000007462500000746250000530000010000000000000830693602                                                                                                                                  19941121                                                                                                                            
0830694285BOOKS     1001 Flying Facts and Firsts                                                    BOOKS     00159520060516000011962500001196250000850000030000000000000830694285                                                                                                                                  19941121                                                                                                                            
0831724358BOOKS     101 Dalmations                                                                  BOOKS     00059820060516000004485000000448500000940000030000000000000831724358                                                                                                                                  19941121                                                                                                                            
0831724870BOOKS     The 101 Dalmatians (Walt Disney)                                                BOOKS     00019820060516000001485000000148500000250000010000000000000831724870                                                                                                                                  19941121                                                                                                                            
087165007XBOOKS     An Advanced Manual of Flying Training                                           BOOKS     0006952006051600000521250000052125000030000001000000000000087165007X                                                                                                                                  19941121                                                                                                                            
0871650401BOOKS     1979 Flying Yearbook                                                            BOOKS     00099920060516000007492500000749250000570000010000000000000871650401                                                                                                                                  19941121                                                                                                                            
0875884474BOOKS     2nd Collector Steiff Values: Complete Guide: American Limited Editions, Animal KBOOKS     00199520060516000014962500001496250000490000050000000000000875884474                                                                                                                                  19941121                                                                                                                            
089745099XBOOKS     Ad Lib Flying the B-24 Liberator in World War II                                BOOKS     0017002006051600001275000000127500000021000002000000000000089745099X                                                                                                                                  19941121                                                                                                                            
0932592309BOOKS     The Aerobie Book: An Investigation into the Ultimate Flying Mini-Machine        BOOKS     00149520060516000011212500001121250000330000020000000000000932592309                                                                                                                                  19941121                                                                                                                            
0936661178BOOKS     76 Disney Songs for the Harp                                                    BOOKS     00289520060516000021712500002171250000340000000000000000000936661178                                                                                                                                  19941121                                                                                                                            
0952690802BOOKS     70 Years of Flying, 1925-1995                                                   BOOKS     00099920060516000007492500000749250000700000070000000000000952690802                                                                                                                                  19941121                                                                                                                            
0961952547BOOKS     Adventures in Colors and Shapes                                                 BOOKS     00034920060516000002617500000261750000910000080000000000000961952547                                                                                                                                  19941121                                                                                                                            
0962288926BOOKS     Aces                                                                            BOOKS     00099920060516000007492500000749250000740000040000000000000962288926                                                                                                                                  19941121                                                                                                                            
0964515008BOOKS     50th Anniversary Commemorative Album of the Flying Column 1945-1995: The LiberatBOOKS     00200020060516000015000000001500000000280000030000000000000964515008                                                                                                                                  19941121                                                                                                                            
0964849771DVD       Flying An Octopus - Raising Balloon Art to New Heights                          DVD       0029952006051600002246250000224625000038000002000000000000                                                                                                                                            19941121                                                                                                                            
1557232458BOOKS     12 Days of Christmas                                                            BOOKS     00099820060516000007485000000748500000050000000000000000001557232458                                                                                                                                  19941121                                                                                                                            
1557234841BOOKS     101 Dalmations:Lucky Christmas                                                  BOOKS     00059820060516000004485000000448500000180000000000000000001557234841                                                                                                                                  19941121                                                                                                                            
1557236054BOOKS     Activity Songs                                                                  BOOKS     00069820060516000005235000000523500000430000020000000000001557236054                                                                                                                                  19941121                                                                                                                            
1558908374DVD       101 Dalmatians                                                                  DVD       0022992006051600001724250000172425000017000000000000000000                                                                                                                                            19941121                                                                                                                            
1563111365BOOKS     401st Bomb Group (H: Portrait of a Flying Lady                                  BOOKS     00299520060516000022462500002246250000330000010000000000001563111365                                                                                                                                  19941121                                                                                                                            
1563111411BOOKS     456th Bombardment Group: Steed's Flying Colts, 1943 - 1945                      BOOKS     00499520060516000037462500003746250000690000020000000000001563111411                                                                                                                                  19941121                                                                                                                            
1563113295BOOKS     44th Bomb Group: The Flying Eightballs                                          BOOKS     00525020060516000039375000003937500000290000010000000000001563113295                                                                                                                                  19941121                                                                                                                            
1565660870BOOKS     3-D Wings: Fabulous Flying Machines                                             BOOKS     00119520060516000008962500000896250000420000040000000000001565660870                                                                                                                                  19941121                                                                                                                            
1578401518BOOKS     101 Dalmatians in Star Search (Disney's Enchanting Stories)                     BOOKS     00045020060516000003375000000337500000710000070000000000001578401518                                                                                                                                  19941121                                                                                                                            
1579730167BOOKS     101 Dalmatians and Parents Guide: Proud to Be a Pup                             BOOKS     00034920060516000002617500000261750000490000020000000000001579730167                                                                                                                                  19941121                                                                                                                            
1589520017BOOKS     1st Flight: Flying Machines (Baysura, Kelly, Flying Machines.)                  BOOKS     00206420060516000015480000001548000000080000000000000000001589520017                                                                                                                                  19941121                                                                                                                            
1592482023BOOKS     21st Century Complete Guide to Edwards Air Force Base: Great Moments in Flight TBOOKS     00299520060516000022462500002246250000050000000000000000001592482023                                                                                                                                  19941121                                                                                                                            
1592482635BOOKS     21st Century Complete Guide to the U.S. Air Force Safety Center Aircraft and AviBOOKS     00299520060516000022462500002246250000780000010000000000001592482635                                                                                                                                  19941121                                                                                                                            
1840371307BOOKS     Adventurous Empires: The Story of the Short Empire Flying Boats                 BOOKS     00399520060516000029962500002996250000130000010000000000001840371307                                                                                                                                  19941121                                                                                                                            
1853049603BOOKS     The Adventures of Winnie-the-Pooh (Disney Studio Albums)                        BOOKS     00099920060516000007492500000749250000070000010000000000001853049603                                                                                                                                  19941121                                                                                                                            
1855611090BOOKS     Action (Flying start science)                                                   BOOKS     00099920060516000007492500000749250000840000040000000000001855611090                                                                                                                                  19941121                                                                                                                            
1860335608BOOKS     The Adventures of Lionel: The Unidentified Flying Dragon                        BOOKS     00099920060516000007492500000749250000040000000000000000001860335608                                                                                                                                  19941121                                                                                                                            
1881852164BOOKS     2011, The Evacuation of Planet Earth                                            BOOKS     00149520060516000011212500001121250000030000000000000000001881852164                                                                                                                                  19941121                                                                                                                            
188522298XBOOKS     101 Dalmatians: Proud to Be a Pup                                               BOOKS     0003492006051600000261750000026175000031000001000000000000188522298X                                                                                                                                  19941121                                                                                                                            
1890455407BOOKS     Absurdities & Realities of Special Education: The Best of Ants... Flying... and BOOKS     00399520060516000029962500002996250000250000010000000000001890455407                                                                                                                                  19941121                                                                                                                            
2205052411BOOKS     Aladdin                                                                         BOOKS     00099920060516000007492500000749250000380000010000000000002205052411                                                                                                                                  19941121                                                                                                                            
2205052756BOOKS     1001 pattes                                                                     BOOKS     00099920060516000007492500000749250000180000000000000000002205052756                                                                                                                                  19941121                                                                                                                            
2230016482BOOKS     800 Histoires dr????les                                                         BOOKS     00099920060516000007492500000749250000010000000000000000002230016482                                                                                                                                  19941121                                                                                                                            
3505115509BOOKS     102 Dalmatiner.                                                                 BOOKS     00099920060516000007492500000749250000570000060000000000003505115509                                                                                                                                  19941121                                                                                                                            
3770403746BOOKS     50 Jahre Panzerknacker                                                          BOOKS     00099920060516000007492500000749250000140000010000000000003770403746                                                                                                                                  19941121                                                                                                                            
6300246604VHS       B-17's:Flying Fortress                                                          VHS       0019992006051600001499250000149925000046000003000000000000                                                                                                                                            19941121                                                                                                                            
6301390687VHS       Accidental Adventurers                                                          VHS       0012992006051600000974250000097425000067000001000000000000                                                                                                                                            19941121                                                                                                                            
6301468821VHS       321 Contact Flying/Ages 8-12                                                    VHS       0009992006051600000749250000074925000088000003000000000000                                                                                                                                            19941121                                                                                                                            
630191905XVHS       Adventures of Rocky and Bullwinkle Vol. 1: Mona Moose                           VHS       0009952006051600000746250000074625000052000005000000000000                                                                                                                                            19941121                                                                                                                            
6301919068VHS       Adventures of Rocky and Bullwinkle Vol. 2: Birth of Bullwinkle                  VHS       0009952006051600000746250000074625000007000000000000000000                                                                                                                                            19941121                                                                                                                            
6301919076VHS       Adventures of Rocky and Bullwinkle Vol. 3: Vincent Van Moose                    VHS       0009952006051600000746250000074625000062000003000000000000                                                                                                                                            19941121                                                                                                                            
6301919084VHS       Adventures of Rocky and Bullwinkle Vol. 4: Blue Moose                           VHS       0009952006051600000746250000074625000042000002000000000000                                                                                                                                            19941121                                                                                                                            
6301919092VHS       Adventures of Rocky and Bullwinkle Vol. 5: La Grande Moose                      VHS       0009952006051600000746250000074625000071000006000000000000                                                                                                                                            19941121                                                                                                                            
6301919106VHS       Adventures of Rocky and Bullwinkle Vol. 6: Canadian Gothic                      VHS       0009952006051600000746250000074625000088000003000000000000                                                                                                                                            19941121                                                                                                                            
6302102596MUSIC     12 Days of Christmas                                                            MUSIC     0011982006051600000898500000089850000035000003000000000000                                                                                                                                            19941121                                                                                                                            
630221744XVHS       Adventures of Rocky and Bullwinkle Vol. 7: Whistler's Moose                     VHS       0012992006051600000974250000097425000078000004000000000000                                                                                                                                            19941121                                                                                                                            
6302217458VHS       Adventures of Rocky and Bullwinkle Vol. 8: Norman Moosewell                     VHS       0009952006051600000746250000074625000036000001000000000000                                                                                                                                            19941121                                                                                                                            
6302491479VHS       Alvin & the Chipmunks: A Chipmunk Christmas                                     VHS       0012992006051600000974250000097425000069000000000000000000                                                                                                                                            19941121                                                                                                                            
6302491487VHS       Alvin & the Chipmunks: Batmunk                                                  VHS       0009992006051600000749250000074925000068000006000000000000                                                                                                                                            19941121                                                                                                                            
6302494729VHS       Adventures of the Flying Cadet                                                  VHS       0019992006051600001499250000149925000030000003000000000000                                                                                                                                            19941121                                                                                                                            
6302541344VHS       Adventures of Rocky and Bullwinkle Vol. 12  Banana Formula                      VHS       0012992006051600000974250000097425000071000005000000000000                                                                                                                                            19941121                                                                                                                            
6302541654VHS       Adventures of Rocky and Bullwinkle Vol. 10  Painting Theft                      VHS       0012992006051600000974250000097425000052000000000000000000                                                                                                                                            19941121                                                                                                                            
6302541662VHS       Adventures of Rocky and Bullwinkle Vol. 11  The Weather Lady                    VHS       0012992006051600000974250000097425000081000005000000000000                                                                                                                                            19941121                                                                                                                            
6302560411VHS       B-17: Flying Fortress                                                           VHS       0019952006051600001496250000149625000092000008000000000000                                                                                                                                            19941121                                                                                                                            
6302787068VHS       Aladdin                                                                         VHS       0024992006051600001874250000187425000065000006000000000000                                                                                                                                            19941121                                                                                                                            
6302794439VHS       Alvin & the Chipmunks: Hair-Raising Chipmunk Tales                              VHS       0005992006051600000449250000044925000006000000000000000000                                                                                                                                            19941121                                                                                                                            
6302868874VHS       Alive                                                                           VHS       0009992006051600000749250000074925000087000002000000000000                                                                                                                                            19941121                                                                                                                            
6302945127VHS       The Adventures of Huck Finn                                                     VHS       0009992006051600000749250000074925000023000001000000000000                                                                                                                                            19941121                                                                                                                            
6303342779VHS       All Purpose Cultural Cat Girl Nuku Nuku, Vol. 1: Nine Lives. Nine-Hundred HorsepVHS       0029992006051600002249250000224925000001000000000000000000                                                                                                                                            19941121                                                                                                                            
6303342787VHS       All Purpose Cultural Cat Girl Nuku Nuku, Vol. 2                                 VHS       0029992006051600002249250000224925000031000001000000000000                                                                                                                                            19941121                                                                                                                            
6303342795VHS       All Purpose Cultural Cat Girl Nuku Nuku, Vol. 3                                 VHS       0029992006051600002249250000224925000069000005000000000000                                                                                                                                            19941121                                                                                                                            
6303425313VHS       Broomhilda Flying High                                                          VHS       0011992006051600000899250000089925000089000002000000000000                                                                                                                                            19941121                                                                                                                            
6303439179VHS       Aladdin's Arabian Adventures: Creatures of Invention                            VHS       0012992006051600000974250000097425000037000003000000000000                                                                                                                                            19941121                                                                                                                            
6303439187VHS       Aladdin's Arabian Adventures: Magic Makers                                      VHS       0012992006051600000974250000097425000023000000000000000000                                                                                                                                            19941121                                                                                                                            
630346632XVHS       At War With the Army/Flying Deuces                                              VHS       0009992006051600000749250000074925000057000003000000000000                                                                                                                                            19941121                                                                                                                            
6303484204VHS       Alvin & the Chipmunks: Daytona Jones                                            VHS       0009992006051600000749250000074925000030000002000000000000                                                                                                                                            19941121                                                                                                                            
6303921132VHS       Aladdin & Jasmine's Moonlight Magic                                             VHS       0009992006051600000749250000074925000063000003000000000000                                                                                                                                            19941121                                                                                                                            
6303929680VHS       Aladdin's Arabian Adventures: Team Genie                                        VHS       0012992006051600000974250000097425000076000000000000000000                                                                                                                                            19941121                                                                                                                            
6303929699VHS       Aladdin's Arabian Adventures: Fearless Friends                                  VHS       0012992006051600000974250000097425000042000002000000000000                                                                                                                                            19941121                                                                                                                            
6303945139VHS       Bulldog Drummond Escapes/Flying Scotsman                                        VHS       0009992006051600000749250000074925000052000002000000000000                                                                                                                                            19941121                                                                                                                            
6304089201VHS       Aladdin and the King of Thieves                                                 VHS       0024992006051600001874250000187425000098000009000000000000                                                                                                                                            19941121                                                                                                                            
6304291698VHS       20,000 Leagues Under the Sea                                                    VHS       0019992006051600001499250000149925000044000003000000000000                                                                                                                                            19941121                                                                                                                            
6304593023VHS       Birds and Flying Creatures Part 1                                               VHS       0029952006051600002246250000224625000080000008000000000000                                                                                                                                            19941121                                                                                                                            
6304593031VHS       Birds and Flying Creatures Part 2                                               VHS       0029952006051600002246250000224625000081000006000000000000                                                                                                                                            19941121                                                                                                                            
6304675143VHS       The Absent-Minded Professor (Colorized)                                         VHS       0009992006051600000749250000074925000073000003000000000000                                                                                                                                            19941121                                                                                                                            
6304810881DVD       America's Flying Aces: Blue Angels - 50th Anniversary                           DVD       0014982006051600001123500000112350000076000005000000000000                                                                                                                                            19941121                                                                                                                            
6305090602DVD       Beauty and the Beast - The Enchanted Christmas                                  DVD       0034992006051600002624250000262425000095000008000000000000                                                                                                                                            19941121                                                                                                                            
6305327025DVD       A Bug's Life                                                                    DVD       0029992006051600002249250000224925000013000001000000000000                                                                                                                                            19941121                                                                                                                            
6305417539DVD       The Flying Deuces                                                               DVD       0009982006051600000748500000074850000063000006000000000000                                                                                                                                            19941121                                                                                                                            
630547253XDVD       The Flying Serpent                                                              DVD       0009992006051600000749250000074925000024000000000000000000                                                                                                                                            19941121                                                                                                                            
6305701377DVD       Beauty and the Beast (Not Disney)                                               DVD       0014982006051600001123500000112350000095000001000000000000                                                                                                                                            19941121                                                                                                                            
6305760659VHS       ABC 2000 - New Millennium Highlights                                            VHS       0014952006051600001121250000112125000028000001000000000000                                                                                                                                            19941121                                                                                                                            
6305784116DVD       The Aristocats                                                                  DVD       0029992006051600002249250000224925000078000001000000000000                                                                                                                                            19941121                                                                                                                            
6305870187DVD       Annie                                                                           DVD       0014992006051600001124250000112425000011000001000000000000                                                                                                                                            19941121                                                                                                                            
6306471375BOOKS     20th Century Masters the Best of                                                BOOKS     00119820060516000008985000000898500000650000030000000000006306471375                                                                                                                                  19941121                                                                                                                            
6307767073BOOKS     52 Week High                                                                    BOOKS     00149820060516000011235000001123500000850000070000000000006307767073                                                                                                                                  19941121                                                                                                                            
8439284926BOOKS     Aladdin                                                                         BOOKS     00204020060516000015300000001530000000720000040000000000008439284926                                                                                                                                  19941121                                                                                                                            
8440668414BOOKS     101 Dalmatas - Ahora La Magia                                                   BOOKS     00060020060516000004500000000450000000650000030000000000008440668414                                                                                                                                  19941121                                                                                                                            
8448805534BOOKS     101 Dalmatas - Disney                                                           BOOKS     00049020060516000003675000000367500000330000010000000000008448805534                                                                                                                                  19941121                                                                                                                            
8448810546BOOKS     Al Agua Winnie! - Libro Bano                                                    BOOKS     00105020060516000007875000000787500000680000040000000000008448810546                                                                                                                                  19941121                                                                                                                            
844881097XBOOKS     102 Dalmatas - La Fiesta Toco y Veo                                             BOOKS     0013602006051600001020000000102000000038000001000000000000844881097X                                                                                                                                  19941121                                                                                                                            
8448810988BOOKS     102 Dalmatas - Domino Toco y Veo                                                BOOKS     00136020060516000010200000001020000000790000010000000000008448810988                                                                                                                                  19941121                                                                                                                            
9501109224BOOKS     Aladdin                                                                         BOOKS     00013020060516000000975000000097500000520000000000000000009501109224                                                                                                                                  19941121                                                                                                                            
9501109259BOOKS     101 Dalmatas                                                                    BOOKS     00013020060516000000975000000097500000110000010000000000009501109259                                                                                                                                  19941121                                                                                                                            
9501112241BOOKS     Agua - Disney Ciencia                                                           BOOKS     00074520060516000005587500000558750000880000010000000000009501112241                                                                                                                                  19941121                                                                                                                            
9501112276BOOKS     Aire - Disney Ciencia                                                           BOOKS     00074520060516000005587500000558750000420000040000000000009501112276                                                                                                                                  19941121                                                                                                                            
9501112993BOOKS     100 Cuentos - Para Leer Antes de Dormir de Disney                               BOOKS     00169020060516000012675000001267500000630000050000000000009501112993                                                                                                                                  19941121                                                                                                                            
9505115652BOOKS     Al Recreo Con Pooh Juego Con Colores - Las Estaciones                           BOOKS     00064020060516000004800000000480000000100000000000000000009505115652                                                                                                                                  19941121                                                                                                                            
9505115660BOOKS     Al Recreo Con Pooh Juego Con Las Formas - El Dia                                BOOKS     00064020060516000004800000000480000000030000000000000000009505115660                                                                                                                                  19941121                                                                                                                            
9505115679BOOKS     Al Recreo Con Pooh Juego Con Los Colores - La Granja                            BOOKS     00064020060516000004800000000480000000440000030000000000009505115679                                                                                                                                  19941121                                                                                                                            
9505115687BOOKS     Al Recreo Con Pooh Juego Con Las Formas El Circo                                BOOKS     00064020060516000004800000000480000000810000050000000000009505115687                                                                                                                                  19941121                                                                                                                            
9505115695BOOKS     Al Recreo Con Pooh Juego Con Las Letras - El Bosque                             BOOKS     00064020060516000004800000000480000000380000000000000000009505115695                                                                                                                                  19941121                                                                                                                            
9505115709BOOKS     Al Recreo Con Pooh Juego Con Las Letras - El Carnaval                           BOOKS     00064020060516000004800000000480000000800000050000000000009505115709                                                                                                                                  19941121                                                                                                                            
9505115717BOOKS     Al Recreo Con Pooh Juego y Dscubro - La Casa                                    BOOKS     00064020060516000004800000000480000000130000010000000000009505115717                                                                                                                                  19941121                                                                                                                            
9505115725BOOKS     Al Recreo Con Pooh Juego Con Numeros - El Mercado                               BOOKS     00064020060516000004800000000480000000260000000000000000009505115725                                                                                                                                  19941121                                                                                                                            
9505115733BOOKS     Al Recreo Con Pooh Juego Con Numeros - La Montana                               BOOKS     00064020060516000004800000000480000000730000030000000000009505115733                                                                                                                                  19941121                                                                                                                            
9505115741BOOKS     Al Recreo Con Pooh Juego Con Letras - Las Vacaciones                            BOOKS     00064020060516000004800000000480000000020000000000000000009505115741                                                                                                                                  19941121                                                                                                                            
950511575XBOOKS     Al Recreo Con Pooh Juego y Descubro - Los Oficios                               BOOKS     0006402006051600000480000000048000000067000001000000000000950511575X                                                                                                                                  19941121                                                                                                                            
9505115768BOOKS     Al Recreo Con Pooh Juego Con Los Numeros - La Fiesta                            BOOKS     00064020060516000004800000000480000000280000010000000000009505115768                                                                                                                                  19941121                                                                                                                            
9580424799BOOKS     Aladdin                                                                         BOOKS     00047020060516000003525000000352500000170000010000000000009580424799                                                                                                                                  19941121                                                                                                                            
9580426422BOOKS     Aladdin                                                                         BOOKS     00041020060516000003075000000307500000810000050000000000009580426422                                                                                                                                  19941121                                                                                                                            
9580430217BOOKS     101 Dalmatas, Los - G.O.D.-                                                     BOOKS     00156020060516000011700000001170000000700000070000000000009580430217                                                                                                                                  19941121                                                                                                                            
9580435731BOOKS     101 Dalmatas - Pongo y Perdida                                                  BOOKS     00039520060516000002962500000296250000850000070000000000009580435731                                                                                                                                  19941121                                                                                                                            
958043574XBOOKS     101 Dalmatas - El Robo de Los Cachorros                                         BOOKS     0004152006051600000311250000031125000029000001000000000000958043574X                                                                                                                                  19941121                                                                                                                            
9580435758BOOKS     101 Dalmatas - Rescate de Los Cachorros                                         BOOKS     00041520060516000003112500000311250000190000010000000000009580435758                                                                                                                                  19941121                                                                                                                            
9580435766BOOKS     101 Dalmatas - MIS Cachorritos                                                  BOOKS     00188520060516000014137500001413750000280000030000000000009580435766                                                                                                                                  19941121                                                                                                                            
9580441022BOOKS     101 Dalmatas - Cachorros del Parque -Sonoro                                     BOOKS     00182020060516000013650000001365000000050000000000000000009580441022                                                                                                                                  19941121                                                                                                                            
9580441057BOOKS     101 Dalmatas                                                                    BOOKS     00103520060516000007762500000776250000590000050000000000009580441057                                                                                                                                  19941121                                                                                                                            
9580442304BOOKS     101 Dalmatas - Cosas Pequenas, Altas y Largas                                   BOOKS     00144520060516000010837500001083750000420000040000000000009580442304                                                                                                                                  19941121                                                                                                                            
9580459436BOOKS     102 d??lmatas - Cl??sicos Dorados                                               BOOKS     00044520060516000003337500000333750000570000030000000000009580459436                                                                                                                                  19941121                                                                                                                            
9580459444BOOKS     102 d??lmatas - Gran Colecci??n Disney                                          BOOKS     00156020060516000011700000001170000000280000000000000000009580459444                                                                                                                                  19941121                                                                                                                            
9681904125BOOKS     101 Dalmatas - Escape de La Mansion de Vil                                      BOOKS     00024520060516000001837500000183750000690000020000000000009681904125                                                                                                                                  19941121                                                                                                                            
9879828747BOOKS     101 Dalmatas - Con Video                                                        BOOKS     00104520060516000007837500000783750000780000010000000000009879828747                                                                                                                                  19941121                                                                                                                            
9879828771BOOKS     102 Dalmatas - Revista + Video                                                  BOOKS     00104520060516000007837500000783750000880000030000000000009879828771                                                                                                                                  19941121                                                                                                                            
9992055359BOOKS     101 Dalmatians/Disney/Book and Cassette                                         BOOKS     00079520060516000005962500000596250000370000020000000000009992055359                                                                                                                                  19941121                                                                                                                            
9994783505BOOKS     1st Edition Disney, Baseball and Entertainment Topical Stamp Price Guide        BOOKS     00199520060516000014962500001496250000350000020000000000009994783505                                                                                                                                  19941121                                                                                                                            
999731011XBOOKS     The 101 Dalmatians Escape (Disney Classics)                                     BOOKS     0006982006051600000523500000052350000011000001000000000000999731011X                                                                                                                                  19941121                                                                                                                            
B0000006UXCLASSICAL Heigh-Ho! Mozart: Favorite Disney Tunes In The Style Of Great Classical ComposerCLASSICAL 0016982006051600001273500000127350000019000002000000000000                                                                                                                                            19941121                                                                                                                            
B00000070HCLASSICAL Bibbidi Bobbidi Bach: More Favorite Disney Tunes                                CLASSICAL 0015982006051600001198500000119850000034000003000000000000                                                                                                                                            19941121                                                                                                                            
B00000070OCLASSICAL An Awfully Big Adventure: The Best of Peter Pan, 1904-96                        CLASSICAL 0015982006051600001198500000119850000065000000000000000000                                                                                                                                            19941121                                                                                                                            
B00000072LMUSIC     Beauty and the Beat: Favorite Disney Tunes in Steelband Style                   MUSIC     0015982006051600001198500000119850000084000005000000000000                                                                                                                                            19941121                                                                                                                            
B000000HQCMUSIC     Another Monty Python CD                                                         MUSIC     0011992006051600000899250000089925000080000007000000000000                                                                                                                                            19941121                                                                                                                            
